{
  "contractName": "AdManager",
  "abi": [
    {
      "constant": true,
      "inputs": [],
      "name": "userCount",
      "outputs": [
        {
          "name": "",
          "type": "uint256"
        }
      ],
      "payable": false,
      "stateMutability": "view",
      "type": "function",
      "signature": "0x07973ccf"
    },
    {
      "constant": true,
      "inputs": [
        {
          "name": "",
          "type": "uint256"
        }
      ],
      "name": "users",
      "outputs": [
        {
          "name": "userId",
          "type": "uint256"
        },
        {
          "name": "numAds",
          "type": "uint256"
        }
      ],
      "payable": false,
      "stateMutability": "view",
      "type": "function",
      "signature": "0x365b98b2"
    },
    {
      "constant": true,
      "inputs": [],
      "name": "adCount",
      "outputs": [
        {
          "name": "",
          "type": "uint256"
        }
      ],
      "payable": false,
      "stateMutability": "view",
      "type": "function",
      "signature": "0x9c89dcf3"
    },
    {
      "constant": true,
      "inputs": [
        {
          "name": "",
          "type": "uint256"
        }
      ],
      "name": "advertisements",
      "outputs": [
        {
          "name": "ownerId",
          "type": "uint256"
        },
        {
          "name": "id",
          "type": "uint256"
        },
        {
          "name": "content",
          "type": "string"
        },
        {
          "name": "adCount",
          "type": "uint256"
        },
        {
          "name": "viewCount",
          "type": "uint256"
        }
      ],
      "payable": false,
      "stateMutability": "view",
      "type": "function",
      "signature": "0xbcea610e"
    },
    {
      "constant": false,
      "inputs": [],
      "name": "createUser",
      "outputs": [],
      "payable": false,
      "stateMutability": "nonpayable",
      "type": "function",
      "signature": "0x25ad91ce"
    },
    {
      "constant": false,
      "inputs": [
        {
          "name": "owner_id",
          "type": "uint256"
        },
        {
          "name": "content",
          "type": "string"
        },
        {
          "name": "count",
          "type": "uint256"
        }
      ],
      "name": "createAd",
      "outputs": [],
      "payable": false,
      "stateMutability": "nonpayable",
      "type": "function",
      "signature": "0xf545a8ca"
    },
    {
      "constant": false,
      "inputs": [
        {
          "name": "adId",
          "type": "uint256"
        },
        {
          "name": "userId",
          "type": "uint256"
        }
      ],
      "name": "addViewer",
      "outputs": [],
      "payable": false,
      "stateMutability": "nonpayable",
      "type": "function",
      "signature": "0xcc6d7e78"
    },
    {
      "constant": true,
      "inputs": [
        {
          "name": "adId",
          "type": "uint256"
        },
        {
          "name": "index",
          "type": "uint256"
        }
      ],
      "name": "getViewerId",
      "outputs": [
        {
          "name": "",
          "type": "uint256"
        }
      ],
      "payable": false,
      "stateMutability": "view",
      "type": "function",
      "signature": "0x78619713"
    }
  ],
  "bytecode": "0x608060405260008055600060015534801561001957600080fd5b506105f8806100296000396000f3fe60806040526004361061008d5763ffffffff7c010000000000000000000000000000000000000000000000000000000060003504166307973ccf811461009257806325ad91ce146100b9578063365b98b2146100d057806378619713146101135780639c89dcf314610143578063bcea610e14610158578063cc6d7e7814610216578063f545a8ca14610246575b600080fd5b34801561009e57600080fd5b506100a7610302565b60408051918252519081900360200190f35b3480156100c557600080fd5b506100ce610308565b005b3480156100dc57600080fd5b506100fa600480360360208110156100f357600080fd5b5035610349565b6040805192835260208301919091528051918290030190f35b34801561011f57600080fd5b506100a76004803603604081101561013657600080fd5b5080359060200135610362565b34801561014f57600080fd5b506100a7610383565b34801561016457600080fd5b506101826004803603602081101561017b57600080fd5b5035610389565b6040518086815260200185815260200180602001848152602001838152602001828103825285818151815260200191508051906020019080838360005b838110156101d75781810151838201526020016101bf565b50505050905090810190601f1680156102045780820380516001836020036101000a031916815260200191505b50965050505050505060405180910390f35b34801561022257600080fd5b506100ce6004803603604081101561023957600080fd5b508035906020013561043e565b34801561025257600080fd5b506100ce6004803603606081101561026957600080fd5b8135919081019060408101602082013564010000000081111561028b57600080fd5b82018360208201111561029d57600080fd5b803590602001918460018302840111640100000000831117156102bf57600080fd5b91908080601f016020809104026020016040519081016040528093929190818152602001838380828437600092019190915250929550509135925061046a915050565b60015481565b60018054810190556103186104ea565b5060408051808201825260018054808352600060208085018281529282526002905293909320915182559151910155565b6002602052600090815260409020805460019091015482565b60009182526003602090815260408084209284526005909201905290205490565b60005481565b60036020908152600091825260409182902080546001808301546002808501805488519481161561010002600019011691909104601f8101879004870284018701909752868352929590949192918301828280156104285780601f106103fd57610100808354040283529160200191610428565b820191906000526020600020905b81548152906001019060200180831161040b57829003601f168201915b5050505050908060030154908060040154905085565b600091825260036020908152604080842060048101805460010190819055855260050190915290912055565b60008054600101905561047b610501565b83815260408082018481526060830184905260008054602080860182815260808701849052918352600381529390912084518155905160018201559051805184936104cd926002850192910190610531565b506060820151600382015560809091015160049091015550505050565b604080518082019091526000808252602082015290565b60a06040519081016040528060008152602001600081526020016060815260200160008152602001600081525090565b828054600181600116156101000203166002900490600052602060002090601f016020900481019282601f1061057257805160ff191683800117855561059f565b8280016001018555821561059f579182015b8281111561059f578251825591602001919060010190610584565b506105ab9291506105af565b5090565b6105c991905b808211156105ab57600081556001016105b5565b9056fea165627a7a72305820e5eeea81985d4a34c7a4f3c54b228df20bc77771a16142cc58bf3fac6ac5651b0029",
  "source": "// SPDX-License-Identifier: MIT\npragma solidity >=0.5.0;\n\ncontract AdManager {\n    uint public adCount = 0;\n    uint public userCount = 0;\n\n    mapping(uint => User) public users;\n    mapping(uint => Ad) public advertisements;\n\n    struct Ad {\n        uint ownerId;\n        uint id;\n        string content;\n        uint adCount;\n        uint viewCount;\n        mapping(uint => uint) viewers;\n    }\n\n    struct User {\n        uint userId;\n        uint numAds;\n    }\n\n    function createUser() public {\n        userCount++;\n        User memory newUser = User(userCount, 0);\n        users[userCount] = newUser;\n    }\n\n    function createAd(uint owner_id, string memory content, uint count) public {\n        adCount++;\n        Ad memory newAd;\n        newAd.ownerId = owner_id;\n        newAd.content = content;\n        newAd.adCount = count;\n        newAd.id = adCount;\n        newAd.viewCount = 0;\n        advertisements[adCount] = newAd;\n    }\n\n    function addViewer(uint adId,  uint userId) public {\n        Ad storage a = advertisements[adId];\n        a.viewCount++;\n        a.viewers[a.viewCount] = userId;\n    }\n\n    function getViewerId(uint adId, uint index) public view returns (uint) {\n        Ad storage ad = advertisements[adId];\n        uint userId = ad.viewers[index];\n        return userId;\n    }\n\n}",
  "sourcePath": "/mnt/c/Users/supre/AdvertisementSystemBlockchain/contracts/AdManager.sol",
  "compiler": {
    "name": "solc",
    "version": "0.5.0+commit.1d4f565a.Emscripten.clang"
  },
  "schemaVersion": "3.0.1",
  "updatedAt": "2022-04-29T04:36:50.189Z",
  "devdoc": {
    "methods": {}
  },
  "userdoc": {
    "methods": {}
  }
}