{
  "contractName": "AdManager",
  "abi": [
    {
      "inputs": [
        {
          "internalType": "address payable",
          "name": "addr",
          "type": "address"
        }
      ],
      "payable": false,
      "stateMutability": "nonpayable",
      "type": "constructor"
    },
    {
      "anonymous": false,
      "inputs": [
        {
          "indexed": false,
          "internalType": "uint256",
          "name": "id",
          "type": "uint256"
        },
        {
          "indexed": false,
          "internalType": "uint256",
          "name": "ownerId",
          "type": "uint256"
        },
        {
          "indexed": false,
          "internalType": "string",
          "name": "content",
          "type": "string"
        },
        {
          "indexed": false,
          "internalType": "uint256",
          "name": "adCount",
          "type": "uint256"
        }
      ],
      "name": "AdCreated",
      "type": "event"
    },
    {
      "constant": true,
      "inputs": [],
      "name": "adCount",
      "outputs": [
        {
          "internalType": "uint256",
          "name": "",
          "type": "uint256"
        }
      ],
      "payable": false,
      "stateMutability": "view",
      "type": "function"
    },
    {
      "constant": true,
      "inputs": [
        {
          "internalType": "uint256",
          "name": "",
          "type": "uint256"
        }
      ],
      "name": "advertisements",
      "outputs": [
        {
          "internalType": "uint256",
          "name": "ownerId",
          "type": "uint256"
        },
        {
          "internalType": "uint256",
          "name": "id",
          "type": "uint256"
        },
        {
          "internalType": "string",
          "name": "content",
          "type": "string"
        },
        {
          "internalType": "uint256",
          "name": "adCount",
          "type": "uint256"
        },
        {
          "internalType": "uint256",
          "name": "viewCount",
          "type": "uint256"
        }
      ],
      "payable": false,
      "stateMutability": "view",
      "type": "function"
    },
    {
      "constant": true,
      "inputs": [],
      "name": "recent",
      "outputs": [
        {
          "internalType": "uint256",
          "name": "",
          "type": "uint256"
        }
      ],
      "payable": false,
      "stateMutability": "view",
      "type": "function"
    },
    {
      "constant": true,
      "inputs": [
        {
          "internalType": "string",
          "name": "",
          "type": "string"
        }
      ],
      "name": "uId",
      "outputs": [
        {
          "internalType": "uint256",
          "name": "",
          "type": "uint256"
        }
      ],
      "payable": false,
      "stateMutability": "view",
      "type": "function"
    },
    {
      "constant": true,
      "inputs": [],
      "name": "userCount",
      "outputs": [
        {
          "internalType": "uint256",
          "name": "",
          "type": "uint256"
        }
      ],
      "payable": false,
      "stateMutability": "view",
      "type": "function"
    },
    {
      "constant": true,
      "inputs": [
        {
          "internalType": "uint256",
          "name": "",
          "type": "uint256"
        }
      ],
      "name": "users",
      "outputs": [
        {
          "internalType": "uint256",
          "name": "userId",
          "type": "uint256"
        },
        {
          "internalType": "uint256",
          "name": "numAds",
          "type": "uint256"
        },
        {
          "internalType": "string",
          "name": "interests",
          "type": "string"
        }
      ],
      "payable": false,
      "stateMutability": "view",
      "type": "function"
    },
    {
      "constant": false,
      "inputs": [
        {
          "internalType": "string",
          "name": "username",
          "type": "string"
        },
        {
          "internalType": "string",
          "name": "interests",
          "type": "string"
        }
      ],
      "name": "createUser",
      "outputs": [],
      "payable": false,
      "stateMutability": "nonpayable",
      "type": "function"
    },
    {
      "constant": true,
      "inputs": [
        {
          "internalType": "uint256",
          "name": "id",
          "type": "uint256"
        }
      ],
      "name": "getUserInterests",
      "outputs": [
        {
          "internalType": "string",
          "name": "",
          "type": "string"
        }
      ],
      "payable": false,
      "stateMutability": "view",
      "type": "function"
    },
    {
      "constant": true,
      "inputs": [
        {
          "internalType": "string",
          "name": "username",
          "type": "string"
        }
      ],
      "name": "getUid",
      "outputs": [
        {
          "internalType": "uint256",
          "name": "",
          "type": "uint256"
        }
      ],
      "payable": false,
      "stateMutability": "view",
      "type": "function"
    },
    {
      "constant": false,
      "inputs": [
        {
          "internalType": "uint256",
          "name": "owner_id",
          "type": "uint256"
        },
        {
          "internalType": "string",
          "name": "content",
          "type": "string"
        },
        {
          "internalType": "uint256",
          "name": "count",
          "type": "uint256"
        }
      ],
      "name": "createAd",
      "outputs": [],
      "payable": true,
      "stateMutability": "payable",
      "type": "function"
    },
    {
      "constant": false,
      "inputs": [
        {
          "internalType": "uint256",
          "name": "adId",
          "type": "uint256"
        },
        {
          "internalType": "string",
          "name": "interests",
          "type": "string"
        },
        {
          "internalType": "address",
          "name": "userAddress",
          "type": "address"
        }
      ],
      "name": "addViewer",
      "outputs": [],
      "payable": false,
      "stateMutability": "nonpayable",
      "type": "function"
    },
    {
      "constant": true,
      "inputs": [
        {
          "internalType": "uint256",
          "name": "adId",
          "type": "uint256"
        },
        {
          "internalType": "uint256",
          "name": "index",
          "type": "uint256"
        }
      ],
      "name": "getViewerAddress",
      "outputs": [
        {
          "internalType": "address",
          "name": "",
          "type": "address"
        }
      ],
      "payable": false,
      "stateMutability": "view",
      "type": "function"
    },
    {
      "constant": true,
      "inputs": [
        {
          "internalType": "uint256",
          "name": "adId",
          "type": "uint256"
        },
        {
          "internalType": "uint256",
          "name": "index",
          "type": "uint256"
        }
      ],
      "name": "getViewerInterests",
      "outputs": [
        {
          "internalType": "string",
          "name": "",
          "type": "string"
        }
      ],
      "payable": false,
      "stateMutability": "view",
      "type": "function"
    },
    {
      "constant": false,
      "inputs": [],
      "name": "getRandomAd",
      "outputs": [
        {
          "internalType": "uint256",
          "name": "",
          "type": "uint256"
        }
      ],
      "payable": false,
      "stateMutability": "nonpayable",
      "type": "function"
    }
  ],
  "bytecode": "0x6080604052600080556000600155600060025534801561001e57600080fd5b50604051610f94380380610f948339818101604052602081101561004157600080fd5b5051600680546001600160a01b0319166001600160a01b03909216919091179055610f23806100716000396000f3fe6080604052600436106100dd5760003560e01c806399e045a91161007f578063bcea610e11610059578063bcea610e146104fc578063d79defe4146105ba578063e6e862471461067d578063f545a8ca1461072e576100dd565b806399e045a9146104bd5780639c89dcf3146104d2578063bb4db8c0146104e7576100dd565b80634ff01024116100bb5780634ff010241461025e578063568c2fa61461030f5780635c8652251461033957806387b162b514610385576100dd565b806305a7f302146100e257806307973ccf14610187578063365b98b2146101ae575b600080fd5b3480156100ee57600080fd5b506101126004803603604081101561010557600080fd5b50803590602001356107db565b6040805160208082528351818301528351919283929083019185019080838360005b8381101561014c578181015183820152602001610134565b50505050905090810190601f1680156101795780820380516001836020036101000a031916815260200191505b509250505060405180910390f35b34801561019357600080fd5b5061019c61088e565b60408051918252519081900360200190f35b3480156101ba57600080fd5b506101d8600480360360208110156101d157600080fd5b5035610894565b6040518084815260200183815260200180602001828103825283818151815260200191508051906020019080838360005b83811015610221578181015183820152602001610209565b50505050905090810190601f16801561024e5780820380516001836020036101000a031916815260200191505b5094505050505060405180910390f35b34801561026a57600080fd5b5061019c6004803603602081101561028157600080fd5b810190602081018135600160201b81111561029b57600080fd5b8201836020820111156102ad57600080fd5b803590602001918460018302840111600160201b831117156102ce57600080fd5b91908080601f01602080910402602001604051908101604052809392919081815260200183838082843760009201919091525092955061093d945050505050565b34801561031b57600080fd5b506101126004803603602081101561033257600080fd5b503561095a565b34801561034557600080fd5b506103696004803603604081101561035c57600080fd5b5080359060200135610a44565b604080516001600160a01b039092168252519081900360200190f35b34801561039157600080fd5b506104bb600480360360408110156103a857600080fd5b810190602081018135600160201b8111156103c257600080fd5b8201836020820111156103d457600080fd5b803590602001918460018302840111600160201b831117156103f557600080fd5b91908080601f0160208091040260200160405190810160405280939291908181526020018383808284376000920191909152509295949360208101935035915050600160201b81111561044757600080fd5b82018360208201111561045957600080fd5b803590602001918460018302840111600160201b8311171561047a57600080fd5b91908080601f016020809104026020016040519081016040528093929190818152602001838380828437600092019190915250929550610a6d945050505050565b005b3480156104c957600080fd5b5061019c610b40565b3480156104de57600080fd5b5061019c610b67565b3480156104f357600080fd5b5061019c610b6d565b34801561050857600080fd5b506105266004803603602081101561051f57600080fd5b5035610b73565b6040518086815260200185815260200180602001848152602001838152602001828103825285818151815260200191508051906020019080838360005b8381101561057b578181015183820152602001610563565b50505050905090810190601f1680156105a85780820380516001836020036101000a031916815260200191505b50965050505050505060405180910390f35b3480156105c657600080fd5b506104bb600480360360608110156105dd57600080fd5b81359190810190604081016020820135600160201b8111156105fe57600080fd5b82018360208201111561061057600080fd5b803590602001918460018302840111600160201b8311171561063157600080fd5b91908080601f016020809104026020016040519081016040528093929190818152602001838380828437600092019190915250929550505090356001600160a01b03169150610c289050565b34801561068957600080fd5b5061019c600480360360208110156106a057600080fd5b810190602081018135600160201b8111156106ba57600080fd5b8201836020820111156106cc57600080fd5b803590602001918460018302840111600160201b831117156106ed57600080fd5b91908080601f016020809104026020016040519081016040528093929190818152602001838380828437600092019190915250929550610c88945050505050565b6104bb6004803603606081101561074457600080fd5b81359190810190604081016020820135600160201b81111561076557600080fd5b82018360208201111561077757600080fd5b803590602001918460018302840111600160201b8311171561079857600080fd5b91908080601f0160208091040260200160405190810160405280939291908181526020018383808284376000920191909152509295505091359250610cf0915050565b6000828152600560208181526040808420858552928301825292839020600190810180548551600293821615610100026000190190911692909204601f8101849004840283018401909552848252606094859383018282801561087f5780601f106108545761010080835404028352916020019161087f565b820191906000526020600020905b81548152906001019060200180831161086257829003601f168201915b50939998505050505050505050565b60015481565b60046020908152600091825260409182902080546001808301546002808501805488519481161561010002600019011691909104601f8101879004870284018701909752868352929590949192918301828280156109335780601f1061090857610100808354040283529160200191610933565b820191906000526020600020905b81548152906001019060200180831161091657829003601f168201915b5050505050905083565b805160208183018101805160038252928201919093012091525481565b6060610964610e35565b600460008481526020019081526020016000206040518060600160405290816000820154815260200160018201548152602001600282018054600181600116156101000203166002900480601f016020809104026020016040519081016040528092919081815260200182805460018160011615610100020316600290048015610a2f5780601f10610a0457610100808354040283529160200191610a2f565b820191906000526020600020905b815481529060010190602001808311610a1257829003601f168201915b50505091909252505050604001519392505050565b60009182526005602081815260408085209385529290910190529020546001600160a01b031690565b6001805481019055610a7d610e35565b50604080516060810182526001805480835260006020808501828152858701888152938352600482529590912084518155945192850192909255518051929384939092610ad1926002850192910190610e56565b509050506001546003846040518082805190602001908083835b60208310610b0a5780518252601f199092019160209182019101610aeb565b51815160209384036101000a60001901801990921691161790529201948552506040519384900301909220929092555050505050565b600060025460010160028190555060005460025481610b5b57fe5b06600281905590505b90565b60005481565b60025481565b60056020908152600091825260409182902080546001808301546002808501805488519481161561010002600019011691909104601f810187900487028401870190975286835292959094919291830182828015610c125780601f10610be757610100808354040283529160200191610c12565b820191906000526020600020905b815481529060010190602001808311610bf557829003601f168201915b5050505050908060030154908060040154905085565b60008381526005602081815260408084206004810180546001908101918290559086529381018352932080546001600160a01b0319166001600160a01b03861617815585519092610c80929084019190870190610e56565b505050505050565b60006003826040518082805190602001908083835b60208310610cbc5780518252601f199092019160209182019101610c9d565b51815160209384036101000a6000190180199092169116179052920194855250604051938490030190922054949350505050565b6000805460010181556006546040516001600160a01b03909116913480156108fc02929091818181858888f19350505050158015610d32573d6000803e3d6000fd5b5060008054815260056020908152604090912084815583519091610d5d916002840191860190610e56565b508181600301819055506000548160010181905550600081600401819055507fc714894f7507e988ca496565658f5e3cbe3914742ce091548d27f35af73800406000548585856040518085815260200184815260200180602001838152602001828103825284818151815260200191508051906020019080838360005b83811015610df2578181015183820152602001610dda565b50505050905090810190601f168015610e1f5780820380516001836020036101000a031916815260200191505b509550505050505060405180910390a150505050565b60405180606001604052806000815260200160008152602001606081525090565b828054600181600116156101000203166002900490600052602060002090601f016020900481019282601f10610e9757805160ff1916838001178555610ec4565b82800160010185558215610ec4579182015b82811115610ec4578251825591602001919060010190610ea9565b50610ed0929150610ed4565b5090565b610b6491905b80821115610ed05760008155600101610eda56fea265627a7a72315820d277e182fe603abb6abe2606bbaa57d1d13fe99f664504df448eb45fadf18b7864736f6c63430005100032",
  "source": "// SPDX-License-Identifier: MIT\npragma solidity >=0.5.0;\n\ncontract AdManager {\n    uint public adCount = 0;\n    uint public userCount = 0;\n    uint public recent = 0;\n\n    mapping(string => uint) public uId;\n    mapping(uint => User) public users;\n    mapping(uint => Ad) public advertisements;\n\n    address payable owner;\n\n    struct Ad {\n        uint ownerId;\n        uint id;\n        string content;\n        uint adCount;\n        uint viewCount;\n        mapping(uint => Viewer) viewers;\n    }\n\n    struct User {\n        uint userId;\n        uint numAds;\n        string interests;\n    }\n\n    struct Viewer {\n        address addr;\n        string interests;\n    }\n\n    event AdCreated (\n        uint id,\n        uint ownerId,\n        string content,\n        uint adCount\n    );\n\n\n\n    constructor(address payable addr) public {\n        owner = addr;\n    }\n\n    function createUser(string memory username, string memory interests) public  {\n        userCount++;\n        User memory newUser = User(userCount, 0, interests);\n        users[userCount] = newUser;\n\n        uId[username] = userCount;\n    }\n\n    function getUserInterests(uint id) public view returns (string memory) {\n        User memory u = users[id];\n        return u.interests;\n    } \n\n    function getUid(string memory username) public view returns (uint) {\n        return uId[username];\n    }\n\n    function createAd(uint owner_id, string memory content, uint count) public payable {\n        adCount++;\n\n        owner.transfer(msg.value);\n\n        Ad storage newAd = advertisements[adCount];\n        newAd.ownerId = owner_id;\n        newAd.content = content;\n        newAd.adCount = count;\n        newAd.id = adCount;\n        newAd.viewCount = 0;\n\n        emit AdCreated(adCount, owner_id, content, count);\n    }\n\n    function addViewer(uint adId, string memory interests, address userAddress) public {\n        Ad storage a = advertisements[adId];\n        a.viewCount++;\n        Viewer storage v = a.viewers[a.viewCount];\n        v.addr = userAddress;\n        v.interests = interests;\n    }\n\n    function getViewerAddress(uint adId, uint index) public view returns (address) {\n        Ad storage ad = advertisements[adId];\n        address userAddress = ad.viewers[index].addr;\n        return userAddress;\n    }\n\n    function getViewerInterests(uint adId, uint index) public view returns (string memory) {\n        Ad storage ad = advertisements[adId];\n        string memory userInterests = ad.viewers[index].interests;\n        return userInterests;\n    }\n\n    function getRandomAd() public returns (uint) {\n        recent = recent + 1;\n        recent = recent % adCount;\n\n        return recent;\n    }\n}",
  "sourcePath": "/home/surya/Desktop/college/6th sem/BC/Project/AdvertisementSystemBlockchain/contracts/AdManager.sol",
  "compiler": {
    "name": "solc",
    "version": "0.5.16+commit.9c3226ce.Emscripten.clang"
  },
  "schemaVersion": "3.4.7",
  "updatedAt": "2022-05-01T06:40:04.624Z",
  "networkType": "ethereum",
  "devdoc": {
    "methods": {}
  },
  "userdoc": {
    "methods": {}
  }
}