{
  "contractName": "AdManager",
  "abi": [
    {
      "constant": true,
      "inputs": [],
      "name": "userCount",
      "outputs": [
        {
          "name": "",
          "type": "uint256"
        }
      ],
      "payable": false,
      "stateMutability": "view",
      "type": "function"
    },
    {
      "constant": true,
      "inputs": [
        {
          "name": "",
          "type": "uint256"
        }
      ],
      "name": "activeUsers",
      "outputs": [
        {
          "name": "user_id",
          "type": "uint256"
        },
        {
          "name": "active_ads",
          "type": "uint256"
        }
      ],
      "payable": false,
      "stateMutability": "view",
      "type": "function"
    },
    {
      "constant": true,
      "inputs": [],
      "name": "adCount",
      "outputs": [
        {
          "name": "",
          "type": "uint256"
        }
      ],
      "payable": false,
      "stateMutability": "view",
      "type": "function"
    },
    {
      "constant": false,
      "inputs": [],
      "name": "createUser",
      "outputs": [],
      "payable": false,
      "stateMutability": "nonpayable",
      "type": "function"
    },
    {
      "constant": false,
      "inputs": [
        {
          "name": "user_id",
          "type": "uint256"
        },
        {
          "name": "_content",
          "type": "string"
        },
        {
          "name": "_count",
          "type": "uint256"
        }
      ],
      "name": "createAd",
      "outputs": [],
      "payable": false,
      "stateMutability": "nonpayable",
      "type": "function"
    }
  ],
  "bytecode": "0x608060405260008055600060015534801561001957600080fd5b506103b0806100296000396000f3fe60806040526004361061006c5763ffffffff7c010000000000000000000000000000000000000000000000000000000060003504166307973ccf811461007157806325ad91ce14610098578063803ae518146100af5780639c89dcf3146100f2578063f545a8ca14610107575b600080fd5b34801561007d57600080fd5b506100866101c3565b60408051918252519081900360200190f35b3480156100a457600080fd5b506100ad6101c9565b005b3480156100bb57600080fd5b506100d9600480360360208110156100d257600080fd5b503561020a565b6040805192835260208301919091528051918290030190f35b3480156100fe57600080fd5b50610086610223565b34801561011357600080fd5b506100ad6004803603606081101561012a57600080fd5b8135919081019060408101602082013564010000000081111561014c57600080fd5b82018360208201111561015e57600080fd5b8035906020019184600183028401116401000000008311171561018057600080fd5b91908080601f0160208091040260200160405190810160405280939291908181526020018383808284376000920191909152509295505091359250610229915050565b60015481565b60018054810190556101d96102b0565b5060408051808201825260018054808352600060208085018281529282526002905293909320915182559151910155565b6002602052600090815260409020805460019091015482565b60005481565b60008054600101905561023a6102c7565b506040805160608101825260008054825260208083018681528385018690528783526002808352858420600180820180548201908190558087529190920184529590932084518155905180519495948694929361029b9385019201906102e9565b50604082015181600201559050505050505050565b604080518082019091526000808252602082015290565b6060604051908101604052806000815260200160608152602001600081525090565b828054600181600116156101000203166002900490600052602060002090601f016020900481019282601f1061032a57805160ff1916838001178555610357565b82800160010185558215610357579182015b8281111561035757825182559160200191906001019061033c565b50610363929150610367565b5090565b61038191905b80821115610363576000815560010161036d565b9056fea165627a7a7230582079b577487cc33afba33c55b2c4d7087d58cac295617b64d1aca717f2df0ed7350029",
  "source": "pragma solidity ^0.5.0;\n\ncontract AdManager {\n    uint public adCount = 0;\n    uint public userCount = 0;\n\n    mapping(uint => User) public activeUsers;\n\n    struct Ad {\n        uint id;\n        string content;\n        uint pending_count;\n    }\n\n    struct User {\n        uint user_id;\n        uint active_ads;\n        mapping(uint => Ad) advertisements;\n    }\n\n    function createUser() public {\n        userCount++;\n        User memory new_user = User({user_id : userCount, active_ads : 0});\n        activeUsers[userCount] = new_user;\n    }\n\n    function createAd(uint user_id, string memory _content, uint _count) public {\n        adCount++;\n        Ad memory new_ad = Ad(adCount, _content, _count);\n        uint count = ++activeUsers[user_id].active_ads;\n        activeUsers[user_id].advertisements[count] = new_ad;\n    }\n\n}",
  "sourcePath": "/mnt/c/Users/supre/BC/contracts/AdManager.sol",
  "compiler": {
    "name": "solc",
    "version": "0.5.0+commit.1d4f565a.Emscripten.clang"
  },
  "schemaVersion": "3.0.1",
  "updatedAt": "2022-04-26T06:24:36.448Z",
  "devdoc": {
    "methods": {}
  },
  "userdoc": {
    "methods": {}
  }
}