{
  "contractName": "AdManager",
  "abi": [
    {
      "constant": true,
      "inputs": [],
      "name": "userCount",
      "outputs": [
        {
          "name": "",
          "type": "int256"
        }
      ],
      "payable": false,
      "stateMutability": "view",
      "type": "function",
      "signature": "0x07973ccf"
    },
    {
      "constant": true,
      "inputs": [
        {
          "name": "",
          "type": "int256"
        }
      ],
      "name": "users",
      "outputs": [
        {
          "name": "userId",
          "type": "int256"
        },
        {
          "name": "numAds",
          "type": "int256"
        }
      ],
      "payable": false,
      "stateMutability": "view",
      "type": "function",
      "signature": "0x741d8fc5"
    },
    {
      "constant": true,
      "inputs": [],
      "name": "adCount",
      "outputs": [
        {
          "name": "",
          "type": "int256"
        }
      ],
      "payable": false,
      "stateMutability": "view",
      "type": "function",
      "signature": "0x9c89dcf3"
    },
    {
      "constant": true,
      "inputs": [
        {
          "name": "",
          "type": "int256"
        }
      ],
      "name": "advertisements",
      "outputs": [
        {
          "name": "ownerId",
          "type": "int256"
        },
        {
          "name": "id",
          "type": "int256"
        },
        {
          "name": "content",
          "type": "string"
        },
        {
          "name": "adCount",
          "type": "int256"
        },
        {
          "name": "viewCount",
          "type": "int256"
        }
      ],
      "payable": false,
      "stateMutability": "view",
      "type": "function",
      "signature": "0xa431d4a6"
    },
    {
      "constant": false,
      "inputs": [],
      "name": "createUser",
      "outputs": [],
      "payable": false,
      "stateMutability": "nonpayable",
      "type": "function",
      "signature": "0x25ad91ce"
    },
    {
      "constant": false,
      "inputs": [
        {
          "name": "owner_id",
          "type": "int256"
        },
        {
          "name": "content",
          "type": "string"
        },
        {
          "name": "count",
          "type": "int256"
        }
      ],
      "name": "createAd",
      "outputs": [],
      "payable": false,
      "stateMutability": "nonpayable",
      "type": "function",
      "signature": "0x3bbf40ec"
    },
    {
      "constant": false,
      "inputs": [
        {
          "name": "adId",
          "type": "int256"
        },
        {
          "name": "userId",
          "type": "int256"
        }
      ],
      "name": "addViewer",
      "outputs": [],
      "payable": false,
      "stateMutability": "nonpayable",
      "type": "function",
      "signature": "0x0420286b"
    },
    {
      "constant": true,
      "inputs": [
        {
          "name": "adId",
          "type": "int256"
        },
        {
          "name": "index",
          "type": "int256"
        }
      ],
      "name": "getViewerId",
      "outputs": [
        {
          "name": "",
          "type": "int256"
        }
      ],
      "payable": false,
      "stateMutability": "view",
      "type": "function",
      "signature": "0x7889f76a"
    }
  ],
  "bytecode": "0x608060405260008055600060015534801561001957600080fd5b50610594806100296000396000f3fe60806040526004361061008d5763ffffffff7c01000000000000000000000000000000000000000000000000000000006000350416630420286b811461009257806307973ccf146100c457806325ad91ce146100eb5780633bbf40ec14610100578063741d8fc5146101bc5780637889f76a146101ff5780639c89dcf31461022f578063a431d4a614610244575b600080fd5b34801561009e57600080fd5b506100c2600480360360408110156100b557600080fd5b5080359060200135610302565b005b3480156100d057600080fd5b506100d961032e565b60408051918252519081900360200190f35b3480156100f757600080fd5b506100c2610334565b34801561010c57600080fd5b506100c26004803603606081101561012357600080fd5b8135919081019060408101602082013564010000000081111561014557600080fd5b82018360208201111561015757600080fd5b8035906020019184600183028401116401000000008311171561017957600080fd5b91908080601f0160208091040260200160405190810160405280939291908181526020018383808284376000920191909152509295505091359250610375915050565b3480156101c857600080fd5b506101e6600480360360208110156101df57600080fd5b50356103c1565b6040805192835260208301919091528051918290030190f35b34801561020b57600080fd5b506100d96004803603604081101561022257600080fd5b50803590602001356103da565b34801561023b57600080fd5b506100d96103fb565b34801561025057600080fd5b5061026e6004803603602081101561026757600080fd5b5035610401565b6040518086815260200185815260200180602001848152602001838152602001828103825285818151815260200191508051906020019080838360005b838110156102c35781810151838201526020016102ab565b50505050905090810190601f1680156102f05780820380516001836020036101000a031916815260200191505b50965050505050505060405180910390f35b600091825260036020908152604080842060048101805460010190819055855260050190915290912055565b60015481565b60018054810190556103446104b6565b5060408051808201825260018054808352600060208085018281529282526002905293909320915182559151910155565b600080546001018082558152600360209081526040909120848155835190916103a59160028401918601906104cd565b5060038101919091556000805460018301556004909101555050565b6002602052600090815260409020805460019091015482565b60009182526003602090815260408084209284526005909201905290205490565b60005481565b60036020908152600091825260409182902080546001808301546002808501805488519481161561010002600019011691909104601f8101879004870284018701909752868352929590949192918301828280156104a05780601f10610475576101008083540402835291602001916104a0565b820191906000526020600020905b81548152906001019060200180831161048357829003601f168201915b5050505050908060030154908060040154905085565b604080518082019091526000808252602082015290565b828054600181600116156101000203166002900490600052602060002090601f016020900481019282601f1061050e57805160ff191683800117855561053b565b8280016001018555821561053b579182015b8281111561053b578251825591602001919060010190610520565b5061054792915061054b565b5090565b61056591905b808211156105475760008155600101610551565b9056fea165627a7a72305820ed9985edb19f591a4a6f291424c3ca37794297c0828e5b3bd9f48ffbe1abbda90029",
  "source": "// SPDX-License-Identifier: MIT\npragma solidity >=0.5.0;\n\ncontract AdManager {\n    int public adCount = 0;\n    int public userCount = 0;\n\n    mapping(int => User) public users;\n    mapping(int => Ad) public advertisements;\n\n    struct Ad {\n        int ownerId;\n        int id;\n        string content;\n        int adCount;\n        int viewCount;\n        mapping(int => int) viewers;\n    }\n\n    struct User {\n        int userId;\n        int numAds;\n    }\n\n    function createUser() public {\n        userCount++;\n        User memory newUser = User(userCount, 0);\n        users[userCount] = newUser;\n    }\n\n    function createAd(int owner_id, string memory content, int count) public {\n        adCount++;\n\n        Ad storage newAd = advertisements[adCount];\n        newAd.ownerId = owner_id;\n        newAd.content = content;\n        newAd.adCount = count;\n        newAd.id = adCount;\n        newAd.viewCount = 0;\n    }\n\n    function addViewer(int adId,  int userId) public {\n        Ad storage a = advertisements[adId];\n        a.viewCount++;\n        a.viewers[a.viewCount] = userId;\n    }\n\n    function getViewerId(int adId, int index) public view returns (int) {\n        Ad storage ad = advertisements[adId];\n        int userId = ad.viewers[index];\n        return userId;\n    }\n\n}",
  "sourcePath": "/mnt/c/Users/supre/AdvertisementSystemBlockchain/contracts/AdManager.sol",
  "compiler": {
    "name": "solc",
    "version": "0.5.0+commit.1d4f565a.Emscripten.clang"
  },
  "schemaVersion": "3.0.1",
  "updatedAt": "2022-04-30T05:36:48.944Z",
  "devdoc": {
    "methods": {}
  },
  "userdoc": {
    "methods": {}
  }
}