{
  "contractName": "AdManager",
  "abi": [
    {
      "constant": true,
      "inputs": [],
      "name": "userCount",
      "outputs": [
        {
          "name": "",
          "type": "uint256"
        }
      ],
      "payable": false,
      "stateMutability": "view",
      "type": "function",
      "signature": "0x07973ccf"
    },
    {
      "constant": true,
      "inputs": [
        {
          "name": "",
          "type": "uint256"
        }
      ],
      "name": "users",
      "outputs": [
        {
          "name": "userId",
          "type": "uint256"
        },
        {
          "name": "numAds",
          "type": "uint256"
        }
      ],
      "payable": false,
      "stateMutability": "view",
      "type": "function",
      "signature": "0x365b98b2"
    },
    {
      "constant": true,
      "inputs": [],
      "name": "adCount",
      "outputs": [
        {
          "name": "",
          "type": "uint256"
        }
      ],
      "payable": false,
      "stateMutability": "view",
      "type": "function",
      "signature": "0x9c89dcf3"
    },
    {
      "constant": true,
      "inputs": [
        {
          "name": "",
          "type": "uint256"
        }
      ],
      "name": "advertisements",
      "outputs": [
        {
          "name": "ownerId",
          "type": "uint256"
        },
        {
          "name": "id",
          "type": "uint256"
        },
        {
          "name": "content",
          "type": "string"
        },
        {
          "name": "slots",
          "type": "uint256"
        }
      ],
      "payable": false,
      "stateMutability": "view",
      "type": "function",
      "signature": "0xbcea610e"
    },
    {
      "constant": false,
      "inputs": [],
      "name": "createUser",
      "outputs": [],
      "payable": false,
      "stateMutability": "nonpayable",
      "type": "function",
      "signature": "0x25ad91ce"
    },
    {
      "constant": false,
      "inputs": [
        {
          "name": "owner_id",
          "type": "uint256"
        },
        {
          "name": "content",
          "type": "string"
        },
        {
          "name": "count",
          "type": "uint256"
        }
      ],
      "name": "createAd",
      "outputs": [],
      "payable": false,
      "stateMutability": "nonpayable",
      "type": "function",
      "signature": "0xf545a8ca"
    }
  ],
  "bytecode": "0x608060405260008055600060015534801561001957600080fd5b5061051d806100296000396000f3fe6080604052600436106100775763ffffffff7c010000000000000000000000000000000000000000000000000000000060003504166307973ccf811461007c57806325ad91ce146100a3578063365b98b2146100ba5780639c89dcf3146100fd578063bcea610e14610112578063f545a8ca146101c9575b600080fd5b34801561008857600080fd5b50610091610285565b60408051918252519081900360200190f35b3480156100af57600080fd5b506100b861028b565b005b3480156100c657600080fd5b506100e4600480360360208110156100dd57600080fd5b50356102cc565b6040805192835260208301919091528051918290030190f35b34801561010957600080fd5b506100916102e5565b34801561011e57600080fd5b5061013c6004803603602081101561013557600080fd5b50356102eb565b6040518085815260200184815260200180602001838152602001828103825284818151815260200191508051906020019080838360005b8381101561018b578181015183820152602001610173565b50505050905090810190601f1680156101b85780820380516001836020036101000a031916815260200191505b509550505050505060405180910390f35b3480156101d557600080fd5b506100b8600480360360608110156101ec57600080fd5b8135919081019060408101602082013564010000000081111561020e57600080fd5b82018360208201111561022057600080fd5b8035906020019184600183028401116401000000008311171561024257600080fd5b91908080601f016020809104026020016040519081016040528093929190818152602001838380828437600092019190915250929550509135925061039a915050565b60015481565b600180548101905561029b610416565b5060408051808201825260018054808352600060208085018281529282526002905293909320915182559151910155565b6002602052600090815260409020805460019091015482565b60005481565b60036020908152600091825260409182902080546001808301546002808501805488519481161561010002600019011691909104601f81018790048702840187019097528683529295909491929183018282801561038a5780601f1061035f5761010080835404028352916020019161038a565b820191906000526020600020905b81548152906001019060200180831161036d57829003601f168201915b5050505050908060030154905084565b6000805460010190556103ab61042d565b50604080516080810182528481526000805460208084018281528486018881526060860188905292845260038252949092208351815593516001850155518051929384939092610402926002850192910190610456565b506060820151816003015590505050505050565b604080518082019091526000808252602082015290565b608060405190810160405280600081526020016000815260200160608152602001600081525090565b828054600181600116156101000203166002900490600052602060002090601f016020900481019282601f1061049757805160ff19168380011785556104c4565b828001600101855582156104c4579182015b828111156104c45782518255916020019190600101906104a9565b506104d09291506104d4565b5090565b6104ee91905b808211156104d057600081556001016104da565b9056fea165627a7a723058207761913bdd0427348ea0e091ac458f7a5b355c82f0c43b7f1c1ba20245c74d8b0029",
  "source": "pragma solidity ^0.5.0;\n\ncontract AdManager {\n    uint public adCount = 0;\n    uint public userCount = 0;\n\n    mapping(uint => User) public users;\n    mapping(uint => Ad) public advertisements;\n\n    struct Ad {\n        uint ownerId;\n        uint id;\n        string content;\n        uint slots;\n    }\n\n    struct User {\n        uint userId;\n        uint numAds;\n    }\n\n    function createUser() public {\n        userCount++;\n        User memory newUser = User(userCount, 0);\n        users[userCount] = newUser;\n    }\n\n    function createAd(uint owner_id, string memory content, uint count) public {\n        adCount++;\n        Ad memory newAd = Ad(owner_id, adCount, content, count);\n        advertisements[adCount] = newAd;\n    }\n}",
  "sourcePath": "/mnt/c/Users/supre/AdvertisementSystemBlockchain/contracts/AdManager.sol",
  "compiler": {
    "name": "solc",
    "version": "0.5.0+commit.1d4f565a.Emscripten.clang"
  },
  "schemaVersion": "3.0.1",
  "updatedAt": "2022-04-26T13:51:17.188Z",
  "devdoc": {
    "methods": {}
  },
  "userdoc": {
    "methods": {}
  }
}