{
  "contractName": "AdManager",
  "abi": [
    {
      "constant": true,
      "inputs": [],
      "name": "adCount",
      "outputs": [
        {
          "name": "",
          "type": "uint32"
        }
      ],
      "payable": false,
      "stateMutability": "view",
      "type": "function",
      "signature": "0x9c89dcf3"
    }
  ],
  "bytecode": "0x60806040526000805463ffffffff1916905534801561001d57600080fd5b5060a68061002c6000396000f3fe608060405260043610603e5763ffffffff7c01000000000000000000000000000000000000000000000000000000006000350416639c89dcf381146043575b600080fd5b348015604e57600080fd5b506055606e565b6040805163ffffffff9092168252519081900360200190f35b60005463ffffffff168156fea165627a7a72305820074dfb6a8b2ac44741414b5fb933aab4a800a3a258118fa2bba605b4ec2109830029",
  "source": "pragma solidity ^0.5.0;\n\ncontract AdManager {\n    uint32 public adCount = 0;\n}",
  "sourcePath": "/mnt/c/Users/supre/BC/contracts/AdManager.sol",
  "compiler": {
    "name": "solc",
    "version": "0.5.0+commit.1d4f565a.Emscripten.clang"
  },
  "schemaVersion": "3.0.1",
  "updatedAt": "2022-04-26T05:30:49.364Z",
  "devdoc": {
    "methods": {}
  },
  "userdoc": {
    "methods": {}
  }
}