{
  "contractName": "AdManager",
  "abi": [
    {
      "inputs": [
        {
          "internalType": "address payable",
          "name": "addr",
          "type": "address"
        }
      ],
      "payable": false,
      "stateMutability": "nonpayable",
      "type": "constructor"
    },
    {
      "anonymous": false,
      "inputs": [
        {
          "indexed": false,
          "internalType": "uint256",
          "name": "id",
          "type": "uint256"
        },
        {
          "indexed": false,
          "internalType": "uint256",
          "name": "ownerId",
          "type": "uint256"
        },
        {
          "indexed": false,
          "internalType": "string",
          "name": "content",
          "type": "string"
        },
        {
          "indexed": false,
          "internalType": "uint256",
          "name": "adCount",
          "type": "uint256"
        }
      ],
      "name": "AdCreated",
      "type": "event"
    },
    {
      "constant": true,
      "inputs": [],
      "name": "adCount",
      "outputs": [
        {
          "internalType": "uint256",
          "name": "",
          "type": "uint256"
        }
      ],
      "payable": false,
      "stateMutability": "view",
      "type": "function"
    },
    {
      "constant": true,
      "inputs": [
        {
          "internalType": "uint256",
          "name": "",
          "type": "uint256"
        }
      ],
      "name": "advertisements",
      "outputs": [
        {
          "internalType": "uint256",
          "name": "ownerId",
          "type": "uint256"
        },
        {
          "internalType": "uint256",
          "name": "id",
          "type": "uint256"
        },
        {
          "internalType": "string",
          "name": "content",
          "type": "string"
        },
        {
          "internalType": "uint256",
          "name": "adCount",
          "type": "uint256"
        },
        {
          "internalType": "uint256",
          "name": "viewCount",
          "type": "uint256"
        }
      ],
      "payable": false,
      "stateMutability": "view",
      "type": "function"
    },
    {
      "constant": true,
      "inputs": [
        {
          "internalType": "string",
          "name": "",
          "type": "string"
        }
      ],
      "name": "uId",
      "outputs": [
        {
          "internalType": "uint256",
          "name": "",
          "type": "uint256"
        }
      ],
      "payable": false,
      "stateMutability": "view",
      "type": "function"
    },
    {
      "constant": true,
      "inputs": [],
      "name": "userCount",
      "outputs": [
        {
          "internalType": "uint256",
          "name": "",
          "type": "uint256"
        }
      ],
      "payable": false,
      "stateMutability": "view",
      "type": "function"
    },
    {
      "constant": true,
      "inputs": [
        {
          "internalType": "uint256",
          "name": "",
          "type": "uint256"
        }
      ],
      "name": "users",
      "outputs": [
        {
          "internalType": "uint256",
          "name": "userId",
          "type": "uint256"
        },
        {
          "internalType": "uint256",
          "name": "numAds",
          "type": "uint256"
        }
      ],
      "payable": false,
      "stateMutability": "view",
      "type": "function"
    },
    {
      "constant": false,
      "inputs": [
        {
          "internalType": "string",
          "name": "username",
          "type": "string"
        }
      ],
      "name": "createUser",
      "outputs": [],
      "payable": false,
      "stateMutability": "nonpayable",
      "type": "function"
    },
    {
      "constant": true,
      "inputs": [
        {
          "internalType": "string",
          "name": "username",
          "type": "string"
        }
      ],
      "name": "getUid",
      "outputs": [
        {
          "internalType": "uint256",
          "name": "",
          "type": "uint256"
        }
      ],
      "payable": false,
      "stateMutability": "view",
      "type": "function"
    },
    {
      "constant": false,
      "inputs": [
        {
          "internalType": "uint256",
          "name": "owner_id",
          "type": "uint256"
        },
        {
          "internalType": "string",
          "name": "content",
          "type": "string"
        },
        {
          "internalType": "uint256",
          "name": "count",
          "type": "uint256"
        }
      ],
      "name": "createAd",
      "outputs": [],
      "payable": true,
      "stateMutability": "payable",
      "type": "function"
    },
    {
      "constant": false,
      "inputs": [
        {
          "internalType": "uint256",
          "name": "adId",
          "type": "uint256"
        },
        {
          "internalType": "uint256",
          "name": "userId",
          "type": "uint256"
        }
      ],
      "name": "addViewer",
      "outputs": [],
      "payable": false,
      "stateMutability": "nonpayable",
      "type": "function"
    },
    {
      "constant": true,
      "inputs": [
        {
          "internalType": "uint256",
          "name": "adId",
          "type": "uint256"
        },
        {
          "internalType": "uint256",
          "name": "index",
          "type": "uint256"
        }
      ],
      "name": "getViewerId",
      "outputs": [
        {
          "internalType": "uint256",
          "name": "",
          "type": "uint256"
        }
      ],
      "payable": false,
      "stateMutability": "view",
      "type": "function"
    }
  ],
  "bytecode": "0x608060405260008055600060015534801561001957600080fd5b506040516109eb3803806109eb8339818101604052602081101561003c57600080fd5b5051600580546001600160a01b0319166001600160a01b0390921691909117905561097f8061006c6000396000f3fe6080604052600436106100915760003560e01c80639c89dcf3116100595780639c89dcf314610294578063bcea610e146102a9578063cc6d7e7814610367578063e6e8624714610397578063f545a8ca1461044857610091565b806307973ccf14610096578063365b98b2146100bd5780634ff0102414610100578063507ffba5146101b15780637861971314610264575b600080fd5b3480156100a257600080fd5b506100ab6104f5565b60408051918252519081900360200190f35b3480156100c957600080fd5b506100e7600480360360208110156100e057600080fd5b50356104fb565b6040805192835260208301919091528051918290030190f35b34801561010c57600080fd5b506100ab6004803603602081101561012357600080fd5b810190602081018135600160201b81111561013d57600080fd5b82018360208201111561014f57600080fd5b803590602001918460018302840111600160201b8311171561017057600080fd5b91908080601f016020809104026020016040519081016040528093929190818152602001838380828437600092019190915250929550610514945050505050565b3480156101bd57600080fd5b50610262600480360360208110156101d457600080fd5b810190602081018135600160201b8111156101ee57600080fd5b82018360208201111561020057600080fd5b803590602001918460018302840111600160201b8311171561022157600080fd5b91908080601f016020809104026020016040519081016040528093929190818152602001838380828437600092019190915250929550610531945050505050565b005b34801561027057600080fd5b506100ab6004803603604081101561028757600080fd5b50803590602001356105e0565b3480156102a057600080fd5b506100ab610601565b3480156102b557600080fd5b506102d3600480360360208110156102cc57600080fd5b5035610607565b6040518086815260200185815260200180602001848152602001838152602001828103825285818151815260200191508051906020019080838360005b83811015610328578181015183820152602001610310565b50505050905090810190601f1680156103555780820380516001836020036101000a031916815260200191505b50965050505050505060405180910390f35b34801561037357600080fd5b506102626004803603604081101561038a57600080fd5b50803590602001356106bc565b3480156103a357600080fd5b506100ab600480360360208110156103ba57600080fd5b810190602081018135600160201b8111156103d457600080fd5b8201836020820111156103e657600080fd5b803590602001918460018302840111600160201b8311171561040757600080fd5b91908080601f0160208091040260200160405190810160405280939291908181526020018383808284376000920191909152509295506106e8945050505050565b6102626004803603606081101561045e57600080fd5b81359190810190604081016020820135600160201b81111561047f57600080fd5b82018360208201111561049157600080fd5b803590602001918460018302840111600160201b831117156104b257600080fd5b91908080601f0160208091040260200160405190810160405280939291908181526020018383808284376000920191909152509295505091359250610750915050565b60015481565b6003602052600090815260409020805460019091015482565b805160208183018101805160028252928201919093012091525481565b6001805481019055610541610895565b50604080518082018252600180548083526000602080850182815292825260038152908590208451815591519183019190915590549251845192939260029286929182918401908083835b602083106105ab5780518252601f19909201916020918201910161058c565b51815160209384036101000a600019018019909216911617905292019485525060405193849003019092209290925550505050565b60009182526004602090815260408084209284526005909201905290205490565b60005481565b60046020908152600091825260409182902080546001808301546002808501805488519481161561010002600019011691909104601f8101879004870284018701909752868352929590949192918301828280156106a65780601f1061067b576101008083540402835291602001916106a6565b820191906000526020600020905b81548152906001019060200180831161068957829003601f168201915b5050505050908060030154908060040154905085565b600091825260046020818152604080852092830180546001019081905585526005909201905290912055565b60006002826040518082805190602001908083835b6020831061071c5780518252601f1990920191602091820191016106fd565b51815160209384036101000a6000190180199092169116179052920194855250604051938490030190922054949350505050565b6000805460010181556005546040516001600160a01b03909116913480156108fc02929091818181858888f19350505050158015610792573d6000803e3d6000fd5b50600080548152600460209081526040909120848155835190916107bd9160028401918601906108af565b508181600301819055506000548160010181905550600081600401819055507fc714894f7507e988ca496565658f5e3cbe3914742ce091548d27f35af73800406000548585856040518085815260200184815260200180602001838152602001828103825284818151815260200191508051906020019080838360005b8381101561085257818101518382015260200161083a565b50505050905090810190601f16801561087f5780820380516001836020036101000a031916815260200191505b509550505050505060405180910390a150505050565b604051806040016040528060008152602001600081525090565b828054600181600116156101000203166002900490600052602060002090601f016020900481019282601f106108f057805160ff191683800117855561091d565b8280016001018555821561091d579182015b8281111561091d578251825591602001919060010190610902565b5061092992915061092d565b5090565b61094791905b808211156109295760008155600101610933565b9056fea265627a7a723158209654e5092adf1f959c7db42fec70755cf100c8e6bef66ae0451330bbdb2e1c2864736f6c63430005100032",
  "source": "// SPDX-License-Identifier: MIT\npragma solidity >=0.5.0;\n\ncontract AdManager {\n    uint public adCount = 0;\n    uint public userCount = 0;\n\n    mapping(string => uint) public uId;\n    mapping(uint => User) public users;\n    mapping(uint => Ad) public advertisements;\n\n    address payable owner;\n\n    struct Ad {\n        uint ownerId;\n        uint id;\n        string content;\n        uint adCount;\n        uint viewCount;\n        mapping(uint => uint) viewers;\n    }\n\n    struct User {\n        uint userId;\n        uint numAds;\n    }\n\n    event AdCreated (\n        uint id,\n        uint ownerId,\n        string content,\n        uint adCount\n    );\n\n    constructor(address payable addr) public {\n        owner = addr;\n    }\n\n    function createUser(string memory username) public  {\n        userCount++;\n        User memory newUser = User(userCount, 0);\n        users[userCount] = newUser;\n\n        uId[username] = userCount;\n    }\n\n    function getUid(string memory username) public view returns (uint) {\n        return uId[username];\n    }\n\n    function createAd(uint owner_id, string memory content, uint count) public payable {\n        adCount++;\n\n        owner.transfer(msg.value);\n\n        Ad storage newAd = advertisements[adCount];\n        newAd.ownerId = owner_id;\n        newAd.content = content;\n        newAd.adCount = count;\n        newAd.id = adCount;\n        newAd.viewCount = 0;\n\n        emit AdCreated(adCount, owner_id, content, count);\n    }\n\n    function addViewer(uint adId,  uint userId) public {\n        Ad storage a = advertisements[adId];\n        a.viewCount++;\n        a.viewers[a.viewCount] = userId;\n    }\n\n    function getViewerId(uint adId, uint index) public view returns (uint) {\n        Ad storage ad = advertisements[adId];\n        uint userId = ad.viewers[index];\n        return userId;\n    }\n}",
  "sourcePath": "/home/blackbait/Documents/Projects/AdvertisementSystemBlockchain/contracts/AdManager.sol",
  "compiler": {
    "name": "solc",
    "version": "0.5.16+commit.9c3226ce.Emscripten.clang"
  },
  "schemaVersion": "3.4.7",
  "updatedAt": "2022-04-30T11:32:12.373Z",
  "networkType": "ethereum",
  "devdoc": {
    "methods": {}
  },
  "userdoc": {
    "methods": {}
  }
}