{
  "contractName": "AdManager",
  "abi": [
    {
      "inputs": [
        {
          "internalType": "address payable",
          "name": "addr",
          "type": "address"
        }
      ],
      "payable": false,
      "stateMutability": "nonpayable",
      "type": "constructor"
    },
    {
      "anonymous": false,
      "inputs": [
        {
          "indexed": false,
          "internalType": "uint256",
          "name": "id",
          "type": "uint256"
        },
        {
          "indexed": false,
          "internalType": "uint256",
          "name": "ownerId",
          "type": "uint256"
        },
        {
          "indexed": false,
          "internalType": "string",
          "name": "content",
          "type": "string"
        },
        {
          "indexed": false,
          "internalType": "uint256",
          "name": "adCount",
          "type": "uint256"
        }
      ],
      "name": "AdCreated",
      "type": "event"
    },
    {
      "constant": true,
      "inputs": [],
      "name": "adCount",
      "outputs": [
        {
          "internalType": "uint256",
          "name": "",
          "type": "uint256"
        }
      ],
      "payable": false,
      "stateMutability": "view",
      "type": "function"
    },
    {
      "constant": true,
      "inputs": [
        {
          "internalType": "uint256",
          "name": "",
          "type": "uint256"
        }
      ],
      "name": "advertisements",
      "outputs": [
        {
          "internalType": "uint256",
          "name": "ownerId",
          "type": "uint256"
        },
        {
          "internalType": "uint256",
          "name": "id",
          "type": "uint256"
        },
        {
          "internalType": "string",
          "name": "content",
          "type": "string"
        },
        {
          "internalType": "uint256",
          "name": "adCount",
          "type": "uint256"
        },
        {
          "internalType": "uint256",
          "name": "viewCount",
          "type": "uint256"
        }
      ],
      "payable": false,
      "stateMutability": "view",
      "type": "function"
    },
    {
      "constant": true,
      "inputs": [
        {
          "internalType": "string",
          "name": "",
          "type": "string"
        }
      ],
      "name": "uId",
      "outputs": [
        {
          "internalType": "uint256",
          "name": "",
          "type": "uint256"
        }
      ],
      "payable": false,
      "stateMutability": "view",
      "type": "function"
    },
    {
      "constant": true,
      "inputs": [],
      "name": "userCount",
      "outputs": [
        {
          "internalType": "uint256",
          "name": "",
          "type": "uint256"
        }
      ],
      "payable": false,
      "stateMutability": "view",
      "type": "function"
    },
    {
      "constant": true,
      "inputs": [
        {
          "internalType": "uint256",
          "name": "",
          "type": "uint256"
        }
      ],
      "name": "users",
      "outputs": [
        {
          "internalType": "uint256",
          "name": "userId",
          "type": "uint256"
        },
        {
          "internalType": "uint256",
          "name": "numAds",
          "type": "uint256"
        },
        {
          "internalType": "string",
          "name": "interests",
          "type": "string"
        }
      ],
      "payable": false,
      "stateMutability": "view",
      "type": "function"
    },
    {
      "constant": false,
      "inputs": [
        {
          "internalType": "string",
          "name": "username",
          "type": "string"
        },
        {
          "internalType": "string",
          "name": "interests",
          "type": "string"
        }
      ],
      "name": "createUser",
      "outputs": [],
      "payable": false,
      "stateMutability": "nonpayable",
      "type": "function"
    },
    {
      "constant": true,
      "inputs": [
        {
          "internalType": "uint256",
          "name": "id",
          "type": "uint256"
        }
      ],
      "name": "getUserInterests",
      "outputs": [
        {
          "internalType": "string",
          "name": "",
          "type": "string"
        }
      ],
      "payable": false,
      "stateMutability": "view",
      "type": "function"
    },
    {
      "constant": true,
      "inputs": [
        {
          "internalType": "string",
          "name": "username",
          "type": "string"
        }
      ],
      "name": "getUid",
      "outputs": [
        {
          "internalType": "uint256",
          "name": "",
          "type": "uint256"
        }
      ],
      "payable": false,
      "stateMutability": "view",
      "type": "function"
    },
    {
      "constant": false,
      "inputs": [
        {
          "internalType": "uint256",
          "name": "owner_id",
          "type": "uint256"
        },
        {
          "internalType": "string",
          "name": "content",
          "type": "string"
        },
        {
          "internalType": "uint256",
          "name": "count",
          "type": "uint256"
        }
      ],
      "name": "createAd",
      "outputs": [],
      "payable": true,
      "stateMutability": "payable",
      "type": "function"
    },
    {
      "constant": false,
      "inputs": [
        {
          "internalType": "uint256",
          "name": "adId",
          "type": "uint256"
        },
        {
          "internalType": "string",
          "name": "interests",
          "type": "string"
        },
        {
          "internalType": "address",
          "name": "userAddress",
          "type": "address"
        }
      ],
      "name": "addViewer",
      "outputs": [],
      "payable": false,
      "stateMutability": "nonpayable",
      "type": "function"
    },
    {
      "constant": true,
      "inputs": [
        {
          "internalType": "uint256",
          "name": "adId",
          "type": "uint256"
        },
        {
          "internalType": "uint256",
          "name": "index",
          "type": "uint256"
        }
      ],
      "name": "getViewerAddress",
      "outputs": [
        {
          "internalType": "address",
          "name": "",
          "type": "address"
        }
      ],
      "payable": false,
      "stateMutability": "view",
      "type": "function"
    },
    {
      "constant": true,
      "inputs": [
        {
          "internalType": "uint256",
          "name": "adId",
          "type": "uint256"
        },
        {
          "internalType": "uint256",
          "name": "index",
          "type": "uint256"
        }
      ],
      "name": "getViewerInterests",
      "outputs": [
        {
          "internalType": "string",
          "name": "",
          "type": "string"
        }
      ],
      "payable": false,
      "stateMutability": "view",
      "type": "function"
    }
  ],
  "bytecode": "0x608060405260008055600060015534801561001957600080fd5b50604051610f0a380380610f0a8339818101604052602081101561003c57600080fd5b5051600580546001600160a01b0319166001600160a01b03909216919091179055610e9e8061006c6000396000f3fe6080604052600436106100a75760003560e01c806387b162b51161006457806387b162b51461034f5780639c89dcf314610487578063bcea610e1461049c578063d79defe41461055a578063e6e862471461061d578063f545a8ca146106ce576100a7565b806305a7f302146100ac57806307973ccf14610151578063365b98b2146101785780634ff0102414610228578063568c2fa6146102d95780635c86522514610303575b600080fd5b3480156100b857600080fd5b506100dc600480360360408110156100cf57600080fd5b508035906020013561077b565b6040805160208082528351818301528351919283929083019185019080838360005b838110156101165781810151838201526020016100fe565b50505050905090810190601f1680156101435780820380516001836020036101000a031916815260200191505b509250505060405180910390f35b34801561015d57600080fd5b50610166610831565b60408051918252519081900360200190f35b34801561018457600080fd5b506101a26004803603602081101561019b57600080fd5b5035610837565b6040518084815260200183815260200180602001828103825283818151815260200191508051906020019080838360005b838110156101eb5781810151838201526020016101d3565b50505050905090810190601f1680156102185780820380516001836020036101000a031916815260200191505b5094505050505060405180910390f35b34801561023457600080fd5b506101666004803603602081101561024b57600080fd5b810190602081018135600160201b81111561026557600080fd5b82018360208201111561027757600080fd5b803590602001918460018302840111600160201b8311171561029857600080fd5b91908080601f0160208091040260200160405190810160405280939291908181526020018383808284376000920191909152509295506108e0945050505050565b3480156102e557600080fd5b506100dc600480360360208110156102fc57600080fd5b50356108fd565b34801561030f57600080fd5b506103336004803603604081101561032657600080fd5b50803590602001356109e7565b604080516001600160a01b039092168252519081900360200190f35b34801561035b57600080fd5b506104856004803603604081101561037257600080fd5b810190602081018135600160201b81111561038c57600080fd5b82018360208201111561039e57600080fd5b803590602001918460018302840111600160201b831117156103bf57600080fd5b91908080601f0160208091040260200160405190810160405280939291908181526020018383808284376000920191909152509295949360208101935035915050600160201b81111561041157600080fd5b82018360208201111561042357600080fd5b803590602001918460018302840111600160201b8311171561044457600080fd5b91908080601f016020809104026020016040519081016040528093929190818152602001838380828437600092019190915250929550610a11945050505050565b005b34801561049357600080fd5b50610166610ae4565b3480156104a857600080fd5b506104c6600480360360208110156104bf57600080fd5b5035610aea565b6040518086815260200185815260200180602001848152602001838152602001828103825285818151815260200191508051906020019080838360005b8381101561051b578181015183820152602001610503565b50505050905090810190601f1680156105485780820380516001836020036101000a031916815260200191505b50965050505050505060405180910390f35b34801561056657600080fd5b506104856004803603606081101561057d57600080fd5b81359190810190604081016020820135600160201b81111561059e57600080fd5b8201836020820111156105b057600080fd5b803590602001918460018302840111600160201b831117156105d157600080fd5b91908080601f016020809104026020016040519081016040528093929190818152602001838380828437600092019190915250929550505090356001600160a01b03169150610b9f9050565b34801561062957600080fd5b506101666004803603602081101561064057600080fd5b810190602081018135600160201b81111561065a57600080fd5b82018360208201111561066c57600080fd5b803590602001918460018302840111600160201b8311171561068d57600080fd5b91908080601f016020809104026020016040519081016040528093929190818152602001838380828437600092019190915250929550610c00945050505050565b610485600480360360608110156106e457600080fd5b81359190810190604081016020820135600160201b81111561070557600080fd5b82018360208201111561071757600080fd5b803590602001918460018302840111600160201b8311171561073857600080fd5b91908080601f0160208091040260200160405190810160405280939291908181526020018383808284376000920191909152509295505091359250610c68915050565b600082815260046020908152604080832084845260058101835292819020600190810180548351600293821615610100026000190190911692909204601f8101859004850283018501909352828252606094938593908301828280156108225780601f106107f757610100808354040283529160200191610822565b820191906000526020600020905b81548152906001019060200180831161080557829003601f168201915b50939998505050505050505050565b60015481565b60036020908152600091825260409182902080546001808301546002808501805488519481161561010002600019011691909104601f8101879004870284018701909752868352929590949192918301828280156108d65780601f106108ab576101008083540402835291602001916108d6565b820191906000526020600020905b8154815290600101906020018083116108b957829003601f168201915b5050505050905083565b805160208183018101805160028252928201919093012091525481565b6060610907610dad565b600360008481526020019081526020016000206040518060600160405290816000820154815260200160018201548152602001600282018054600181600116156101000203166002900480601f0160208091040260200160405190810160405280929190818152602001828054600181600116156101000203166002900480156109d25780601f106109a7576101008083540402835291602001916109d2565b820191906000526020600020905b8154815290600101906020018083116109b557829003601f168201915b50505091909252505050604001519392505050565b6000918252600460209081526040808420928452600590920190529020546001600160a01b031690565b6001805481019055610a21610dad565b50604080516060810182526001805480835260006020808501828152858701888152938352600382529590912084518155945192850192909255518051929384939092610a75926002850192910190610dce565b509050506001546002846040518082805190602001908083835b60208310610aae5780518252601f199092019160209182019101610a8f565b51815160209384036101000a60001901801990921691161790529201948552506040519384900301909220929092555050505050565b60005481565b60046020908152600091825260409182902080546001808301546002808501805488519481161561010002600019011691909104601f810187900487028401870190975286835292959094919291830182828015610b895780601f10610b5e57610100808354040283529160200191610b89565b820191906000526020600020905b815481529060010190602001808311610b6c57829003601f168201915b5050505050908060030154908060040154905085565b60008381526004602081815260408084209283018054600190810191829055908552600584018352932080546001600160a01b0319166001600160a01b038616178155855192939092610bf89291840191870190610dce565b505050505050565b60006002826040518082805190602001908083835b60208310610c345780518252601f199092019160209182019101610c15565b51815160209384036101000a6000190180199092169116179052920194855250604051938490030190922054949350505050565b6000805460010181556005546040516001600160a01b03909116913480156108fc02929091818181858888f19350505050158015610caa573d6000803e3d6000fd5b5060008054815260046020908152604090912084815583519091610cd5916002840191860190610dce565b508181600301819055506000548160010181905550600081600401819055507fc714894f7507e988ca496565658f5e3cbe3914742ce091548d27f35af73800406000548585856040518085815260200184815260200180602001838152602001828103825284818151815260200191508051906020019080838360005b83811015610d6a578181015183820152602001610d52565b50505050905090810190601f168015610d975780820380516001836020036101000a031916815260200191505b509550505050505060405180910390a150505050565b60405180606001604052806000815260200160008152602001606081525090565b828054600181600116156101000203166002900490600052602060002090601f016020900481019282601f10610e0f57805160ff1916838001178555610e3c565b82800160010185558215610e3c579182015b82811115610e3c578251825591602001919060010190610e21565b50610e48929150610e4c565b5090565b610e6691905b80821115610e485760008155600101610e52565b9056fea265627a7a72315820d749916ea2fc3b05e226c91d66bbe96ad9caf739b99cec71b36f7e96231c3e6264736f6c63430005100032",
  "source": "// SPDX-License-Identifier: MIT\npragma solidity >=0.5.0;\n\ncontract AdManager {\n    uint public adCount = 0;\n    uint public userCount = 0;\n\n    mapping(string => uint) public uId;\n    mapping(uint => User) public users;\n    mapping(uint => Ad) public advertisements;\n\n    address payable owner;\n\n    struct Ad {\n        uint ownerId;\n        uint id;\n        string content;\n        uint adCount;\n        uint viewCount;\n        mapping(uint => Viewer) viewers;\n    }\n\n    struct User {\n        uint userId;\n        uint numAds;\n        string interests;\n    }\n\n    struct Viewer {\n        address addr;\n        string interests;\n    }\n\n    event AdCreated (\n        uint id,\n        uint ownerId,\n        string content,\n        uint adCount\n    );\n\n\n\n    constructor(address payable addr) public {\n        owner = addr;\n    }\n\n    function createUser(string memory username, string memory interests) public  {\n        userCount++;\n        User memory newUser = User(userCount, 0, interests);\n        users[userCount] = newUser;\n\n        uId[username] = userCount;\n    }\n\n    function getUserInterests(uint id) public view returns (string memory) {\n        User memory u = users[id];\n        return u.interests;\n    } \n\n    function getUid(string memory username) public view returns (uint) {\n        return uId[username];\n    }\n\n    function createAd(uint owner_id, string memory content, uint count) public payable {\n        adCount++;\n\n        owner.transfer(msg.value);\n\n        Ad storage newAd = advertisements[adCount];\n        newAd.ownerId = owner_id;\n        newAd.content = content;\n        newAd.adCount = count;\n        newAd.id = adCount;\n        newAd.viewCount = 0;\n\n        emit AdCreated(adCount, owner_id, content, count);\n    }\n\n    function addViewer(uint adId, string memory interests, address userAddress) public {\n        Ad storage a = advertisements[adId];\n\n        a.viewCount++;\n        Viewer storage v = a.viewers[a.viewCount];\n        v.addr = userAddress;\n        v.interests = interests;\n    }\n\n    function getViewerAddress(uint adId, uint index) public view returns (address) {\n        Ad storage ad = advertisements[adId];\n        address userAddress = ad.viewers[index].addr;\n        return userAddress;\n    }\n\n    function getViewerInterests(uint adId, uint index) public view returns (string memory) {\n        Ad storage ad = advertisements[adId];\n        string memory userInterests = ad.viewers[index].interests;\n        return userInterests;\n    }\n}",
  "sourcePath": "/mnt/c/Users/supre/AdvertisementSystemBlockchain/contracts/AdManager.sol",
  "compiler": {
    "name": "solc",
    "version": "0.5.16+commit.9c3226ce.Emscripten.clang"
  },
  "schemaVersion": "3.4.7",
  "updatedAt": "2022-04-30T16:25:32.309Z",
  "networkType": "ethereum",
  "devdoc": {
    "methods": {}
  },
  "userdoc": {
    "methods": {}
  }
}